:1000000080315528303430347E1480314E01161E34
:100010000A280B2813280C1E0E280F2813289631A7
:10002000BB26803153280B1F162817285328191F69
:100030001A281B2826280F1F1E281F2826284201A1
:1000400057088A0056080A0080315328991F29282A
:100050002A2835288F1F2D282E283528420155089B
:100060008A0054080A0080315328191E382839287C
:1000700044280F1E3C283D28442842014D088A0090
:100080004C080A0080315328991E472848285328D5
:100090008F1E4B284C28532842014B088A004A08DF
:1000A0000A00803153287E100900803157288031A2
:1000B00002208031EE00803103208031EF008A3051
:1000C0008400883085005830860001308700113068
:1000D00096319E268031FC0120308400003085005E
:1000E0002730963198268031A0308400003085007A
:1000F0004D309631982680312030840001308500C3
:100100002430963198268031A0308400013085005B
:1001100040309631982680312030840002308500AE
:100120005030963198268031A0308400023085000E
:10013000503096319826803120308400033085007D
:1001400050309631982680317E1040018031A828A9
:100150008831EE2080312030F1000330F200503041
:10016000F30089317B2180318B170B178E319D264F
:100170008031843176248031963144268031953126
:10018000E3258031003A0319C628C728CC2801305E
:100190004001ED006D08AE079531D0258031013A60
:1001A000031DD328D4285B29963133268031013AA8
:1001B000031DDB28DC28F4284E018C128831D8205E
:1001C00080318D314125803188319B2080318B31C8
:1001D000212380318D31FE258031BF2897315E2764
:1001E00080318131882180318A3116228031003A74
:1001F000031DFB28FC28EE283C29003084009030A9
:100200008500013F8A00003F0A0081314001ED0076
:100210002E08203E8600023087006D0881002E08DF
:10022000203E8600023087000D300106031919298F
:100230001A292B292E08203E8600023087000A301A
:1002400001060319242925292B294F302E06031DC9
:100250002A292B2938292E08203E860002308700C3
:10026000810120308231542280314001AE013C298D
:100270000130ED006D08AE07063084009030850037
:10028000013F8A00003F0A008131003A031D4929DD
:100290004A29FD28BF2897315E2780314101EF00B0
:1002A0006F08F1000230840090308500013F8A0021
:1002B000003F0A0081318A3116228031003A031D45
:1002C000622963294B29772900308400903085000A
:1002D000013F8A00003F0A008131F6006830840047
:1002E00090308500013F8A00003F0A0081310630CE
:1002F000840090308500013F8A00003F0A00813170
:10030000003A031D842985296429BF288031552896
:100310004001DA00342A0230C300532A5A08C100CF
:100320000330C300532A3A305A02031C98299929F2
:10033000A2295A085F39C93ED400FF3003180030A3
:10034000D500A9295A08D03ED400FF300318003048
:10035000D5005408C2000430C300532A3A305A0270
:10036000031CB329B429BD295A085F39C93ED600F8
:10037000FF3003180030D700C4295A08D03ED600F9
:10038000FF3003180030D7004208D2000330D235C6
:10039000FF3E031DC72952355607C2000530C30072
:1003A000532A3A305A02031CD629D729E0295A0881
:1003B0005F39C93EAA00FF3003180030AB00E729BF
:1003C0005A08D03EAA00FF3003180030AB000130BD
:1003D000C2024208031DED29EE29F029C301532A68
:1003E0000630C300532A3A305A02031CF829F9296F
:1003F000022A5A085F39C93ED800FF30031800307E
:10040000D900092A5A08D03ED800FF30031800301E
:10041000D9002B08D3002A08D200D20ED30EF03018
:10042000D30552080F39D304F030D20558085207CB
:10043000AA005908533DAB002A08CE0041088E316E
:10044000D326813101304001C2024208031D292A0E
:100450002A2ACE29EE295B305A06031D302A312A7A
:10046000532AC301C30A532A4308D200D3015308B5
:10047000003A03193C2A2B2A5208003A03192B2A66
:10048000013A03198B29033A03198E29013A0319FA
:100490009329073A0319AE29013A0319D129033ADE
:1004A0000319F3292B2A0800F9007908F10002301A
:1004B000F2008931AC21823171080907F8005B3004
:1004C000F6006830840090308500013F8A00003FCC
:1004D0000A008231400144080F39583E860001303D
:1004E00087000108F6006830840090308500013FE5
:1004F0008A00003F0A0082310130F700770840018E
:10050000C4075330F6006830840090308500013F06
:100510008A00003F0A0082317808F7000430F7367D
:10052000890B8F2A77080F39583E860001308700E3
:100530000108F6006830840090308500013F8A0091
:10054000003F0A00823178080F39583E860001309A
:1005500087000108F6006830840090308500013F74
:100560008A00003F0A008231E92A790886000230B9
:1005700087000108F7000430F736890BBC2A77089A
:100580000F39583E8600013087000108F6006830B8
:10059000840090308500013F8A00003F0A008231CC
:1005A000790886000230870001080F39583E86001E
:1005B000013087000108F600683084009030850023
:1005C000013F8A00003F0A0082310130F7007708BE
:1005D000F90779088600023087000108031DF12A17
:1005E000F22AB52A5D30F60068308400903085002C
:1005F000013F8A00003F0A0082310800FA005B30A8
:10060000F6006830840090308500013F8A00003F8A
:100610000A008331400144080F39583E86000130FA
:1006200087000108F6006830840090308500013FA3
:100630008A00003F0A0083310130F8007808400149
:10064000C4077A08F6006830840090308500013FC6
:100650008A00003F0A0083317708F100F2018931F6
:10066000AC2182317108F8007208F9000430F936C3
:10067000F80C890B372B78080F39583E860001306B
:1006800087000108F6006830840090308500013F43
:100690008A00003F0A0083317708F100F2018931B6
:1006A000AC21823171080F39583E86000130870035
:1006B0000108F6006830840090308500013F8A0010
:1006C000003F0A008331762B7708860087010108F6
:1006D000F6006830840090308500013F8A00003FBA
:1006E0000A0083310130F8007808F70777088600A0
:1006F00087010108031D7D2B7E2B642B5D30F600E6
:100700006830840090308500013F8A00003F0A0075
:1007100083310800F6016A30840090308500013F83
:100720008A00003F0A008331F3006A308400903071
:100730008500013F8A00003F0A008331F4006A30DF
:10074000840090308500013F8A00003F0A00833119
:10075000F500C92B4F307406031DAF2BB02BD12BE6
:100760004B307506031DB52BB62BD12BF601F60ABF
:10077000D12B72307406031DBE2BBF2BD12B7230D0
:100780007506031DC42BC52BD12BF601D12B0030D0
:10079000112C7308413A0319AA2B043A0319B92BF7
:1007A000C72B6A30840090308500013F8A00003FEB
:1007B0000A0083316A30840090308500013F8A004E
:1007C000003F0A0083316A30840090308500013F89
:1007D0008A00003F0A0083316A308400903085002F
:1007E000013F8A00003F0A0083316A308400903064
:1007F0008500013F8A00003F0A0083316A3084008F
:1008000090308500013F8A00003F0A0084316A3041
:10081000840090308500013F8A00003F0A00843147
:10082000760808006A30840090308500013F8A0015
:10083000003F0A0084314001EB003C03031D212CE2
:10084000222C622C25306B06031D272C282C3C2CD7
:10085000BC01220886002308870081012508E900E1
:100860002408E8007830840090308500013F8A0039
:10087000003F0A008431732C3F084201E900EA017D
:100880006908400124074201EB006A084001253D48
:100890004201EC006C0840012302031D532C42016D
:1008A0006B08400122020318562C572C732C220887
:1008B0008600230887006B0881000130A207003002
:1008C000A33D732C25306B06031D672C682C6F2C01
:1008D000BC01BC0A2508A3002408A200732CBD019A
:1008E000BD0A6B08BE0040013D080800F101F10A95
:1008F0007430840090308500013F8A00003F0A0078
:100900008431F101F10A7230840090308500013F9A
:100910008A00003F0A0084310130F4000030F50005
:100920007630840090308500013F8A00003F0A0045
:100930008431F1017230840090308500013F8A00DB
:10094000003F0A008431F101F10A703084009030D8
:100950008500013F8A00003F0A008431C830F4005E
:100960000030F5007630840090308500013F8A0029
:10097000003F0A008431C52C6A3084009030850025
:10098000013F8A00003F0A0084316E3084009030BD
:100990008500013F8A00003F0A008431003A031DB0
:1009A000D22CD32CBC2C08007A087B040319D92C38
:1009B000DA2C262D7B08F2007A08F1008931AC216F
:1009C000843172084001CA007108C900172D7908E6
:1009D000F2007808F1007B08F4007A08F300400187
:1009E0004A08F6004908F50085317C2584317108F4
:1009F0007204031DFC2CFD2CFE2C282D7808013ED2
:100A0000F1000030793DF2007A0884007B0885000F
:100A100000084001C700C8014708F3004808F40077
:100A20008A31322284317208F9007108F80078089E
:100A3000790403191C2D1D2D262D780886007908B0
:100A400087000108031D252D262DE72CF801F9014B
:100A50000800963138268531003A0319302D312DA2
:100A60005F2D3E2D9631012685317B2D9631062650
:100A700085317B2D9631102685317B2D41012F0844
:100A8000F8000630A03E86008701413F8A00403FC3
:100A90000A008531F900FA017A08003A0319512D4C
:100AA0003A2D7908013A03193A2D033A0319322DE8
:100AB000013A0319362D073A03193A2D3A2D41010F
:100AC0003C101730A03E86008701403F840085011E
:100AD000810A00089531F725853101304101B802BE
:100AE0000030B93B38083904031D772D782D7A2D55
:100AF00006307B2D033008000130F5020030F63B54
:100B0000750A031D872D760A031D872D882D972DC5
:100B1000F101F201CD2D0130F1070030F23D01303D
:100B2000F3070030F43D0130F5020030F63B710868
:100B3000860072088700010803199F2DA02DBF2D84
:100B4000730884007408850012000319A82DA92DCC
:100B5000BF2D750876040319AE2DAF2DBF2D730878
:100B60008400740885000008F70071088600720888
:100B70008700010877060319BE2DBF2D8B2D710844
:100B800086007208870073088400740885000008D6
:100B90000102F100F201031CF20308002030F10011
:100BA0000230840090308500013F8A00003F0A0037
:100BB00085313E30F1000230840090308500013FE5
:100BC0008A00003F0A0085313E30F1000230840087
:100BD00090308500013F8A00003F0A0085313E3099
:100BE000F1000230840090308500013F8A00003F10
:100BF0000A0085312030F1000230840090308500F9
:100C0000013F8A00003F0A0086310D30F1000230BA
:100C1000840090308500013F8A00003F0A00863141
:100C20000A30F1000230840090308500013F8A00D4
:100C3000003F0A00863108004001CC002A30D00075
:100C40000230CE000030CF0040014C088E316726C4
:100C50008631003A03192D2E2E2E242EEF30F5006A
:100C60001730F6005030F70097311A2786310130DF
:100C7000F1000030F2004B3097319127863100307F
:100C8000F500F6000030F700F8009731252786318F
:100C90009631292686318931332186314001CD00B4
:100CA0004D030319542E552E4B2E4D08031D592E5E
:100CB0005A2E5B2E652EFF30CE07FF30CF3D4E08FB
:100CC0004F04031D642E652E242E50080800400199
:100CD0009C01313098009901C1309A00083096008B
:100CE000DE309200EF309300253094007E01CE017B
:100CF000C930C3000E30B800E501C401B901CF010D
:100D0000E601BA01C501D001FF30BB00FF30C600CB
:100D1000FF30D1003F30BC003F30C7003F30D20031
:100D20003F133E133D17B230F1001530F2009631FB
:100D3000922686314E01161609307D01C50013300A
:100D40007E01990014309A002530A4000F309C00D9
:100D500015307D01CD000A30C6000D30CB000800F3
:100D600030304001C9003030CC003030CA00471E5E
:100D7000BA2EBB2EBE2E3130CB00C02E3030CB0071
:100D800047080F39303EC900481EC72EC82ECB2E4B
:100D90003130CC00CD2E3030CC0048080F39303EF9
:100DA000CA007C304301A0004F30A1002C30A200CB
:100DB00040014B084301A300400149084301A4003E
:100DC0002C30A50040014C084301A60040014A0810
:100DD0004301A7000D30A8000A30A9000A30F7002F
:100DE000A0308D316F25863183318A23863108000A
:100DF0008C318A24863140016908F9006808F800BE
:100E00001730FA009830FB008431D42486317808FA
:100E1000790403190C2F0D2F112F4001EA01C00195
:100E20002C2F40016908F9006808F8000030FA002A
:100E30009830FB008431D424863178087904031972
:100E4000222F232F292F4001EA01EA0AC001C00AFC
:100E50002C2F02304001EA006908F8006808F7000A
:100E60008E31322686318531CE25863140016A08A1
:100E70008A31B522863108004001D1004001510875
:100E80008E3167268731003A0319472F482F3E2FAE
:100E90000230F5000830F6005230F70097311A277B
:100EA00087310130F1000030F2004B30973191274B
:100EB00087310030F500F6000030F700F800973178
:100EC000252787319631292687318931332187318A
:100ED000013A03196C2F6D2F652F40015308CE0086
:100EE0005208CD004E08CD00CE015208D000CF01EF
:100EF0004D084F04CB004E085004CC0008004101BF
:100F00003708860087019531CA2587318100013075
:100F1000F90079084101B7070130B8020030B93B48
:100F2000380839040319952F962F9B2F9531EB25FF
:100F300087310530C12FBC15A52F96311F2687316B
:100F4000C12F96311A268731C12F2C08F8002108AD
:100F50008A0020080A008731F900FA017A08003A6D
:100F60000319B32FA12F7908013A0319A12F033ACE
:100F700003199D2F013A03199D2F073A0319A12F39
:100F8000A12F08004E0199130B30F1000F30F20031
:100F90009631862687314E0119137130F1000A30DF
:100FA000F20096318C268731083054019F00903032
:100FB0009D0024309E0040309B0003309C00B130E7
:100FC000F1001530F20096317A268731DF30F100DA
:100FD0001530F200963180268731DB30F100153074
:100FE000F2009631742687314001B601BB01BA0187
:100FF0000830B900FC01B801B7014E01991708008B
:10100000053008000230F1000030F2007808973116
:10101000912788310030F500F600F70197311A2743
:101020008831023008000230F1000030F200780808
:101030009731912788310030F500F600F70197319C
:101040001A278831043008000130F1000030F20026
:1010500078089731912788310030F500F600F701C4
:1010600097311A278831023008000230F100003031
:10107000F20078089731912788310030F500F600AA
:10108000F70197311A278831023008000130F1004A
:101090000030F20078089731912788310030F50050
:1010A000F600F70197311A27883104300800023022
:1010B0004001CB00193086311C2688310139031DCF
:1010C00062286428013065280030FB007B08080096
:1010D00004304001CB00193086311C26883101399B
:1010E000031D73287528013076280030FB007B082B
:1010F000080006304001CB00193086311C268831AB
:101100000139031D84288628013087280030FB0020
:101110007B080800303431343234333434343534DD
:101120003634373438343934413442344334443437
:101130004534463400349631502688314001C7008A
:10114000C8014708F60048308D31CD258831483038
:10115000F70050308231FE228831080047304B01C1
:101160009F000B309D00DC309C001D084001A10059
:101170004B011C084001A0004E018C1290304B0125
:101180009E000800CB280B30F3006230890BC62884
:10119000F30BC62800320130F1020030F23B710A35
:1011A000031DD628720A031DD628D728C328080095
:1011B0004001DF01643097318427883140016508A0
:1011C000FA006408F9005F3097319F2788315F305B
:1011D000F70054308231FE22883108009731102701
:1011E00088319631DF2688318631672688319731FC
:1011F000062788318831AE2088318F3181278831A8
:101200008731C2278831080024304301A0002430F0
:10121000A1002430A2000330F700A0308D316F25EB
:1012200089312D30F3009830F4000530F5008C3111
:101230003224893108007C08DD3E86008701540194
:10124000190881000130F0007008FC0708307C02AA
:10125000031C2B292C292D29FC010130F0007008DA
:101260004001B7070800F101F10A4101BC18392912
:101270003A2949293C11FF30B6009531B52589310D
:101280009531BB2589319531B825893141013B081C
:10129000F10071080800780886008701403FF100DE
:1012A000413FF2007808023E86008701010897312D
:1012B000912789310030F500F600F70197311A27A0
:1012C000893102300800780886008701403FF1002C
:1012D000413FF2007808023E8600870101089731FD
:1012E000912789310030F500F600F70197311A2770
:1012F000893102300800710872040319802981299C
:10130000912902307302031C8629872991297208CA
:101310004001A5007108A4007308FF3EBF00013022
:1013200092290030080040013208C53E860087013E
:101330004201190881000130F00070084001B20735
:1013400008303202031CA529A629A729B2010130C1
:10135000F0007008B00708007208F5007108F4008A
:10136000B5290130F1070030F23D710884007208A0
:1013700085001200031DBD29BE29B1297408710220
:10138000F1007508723BF2000800F6007608F500DF
:10139000750886008701F50A7208F4007108F300E9
:1013A000F10A0319F20A7308840074088500000822
:1013B000C03F8908031DDD29DE29C82908002D301A
:1013C0004301A0002D30A1002D30A2000D30A3005C
:1013D0000A30A4000530F700A0308D316F25893127
:1013E0002830F3009830F4000530F5008C313224B9
:1013F000893108008931042189311430F40000302A
:10140000F5007630840090308500013F8A00003F6F
:101410000A008A3140012D08C8002C08C700863117
:10142000B02689318931DF218931080040013D082A
:1014300003191B2A1C2A1E2A0130312A6E3084000F
:1014400090308500013F8A00003F0A008A31003A4F
:1014500003192B2A2C2A302A843112248A31312A6A
:1014600000300800710886007208870001087306C2
:10147000031D3B2A3C2A3D2A4F2A7208F6007108B8
:10148000F500F10A0319F20A75088600760887004C
:101490000108031D4C2A4D2A322AF101F2010800ED
:1014A0004001C900CA01CA0A4101BC18582A592A78
:1014B0006E2ABC144001CA0149080319602A612A36
:1014C000652A4101BA01BA0A682A02304101BA000C
:1014D0009531BE258A3197316A278A3140014A0801
:1014E00008000830400139020318772A782A902A28
:1014F0003A08E53E86008701010854019A00013050
:10150000F00070084001BA0708303A02031C892A2B
:101510008A2A8B2ABA010130F0007008B907922A92
:101520004E01191308000830400133020318992AAC
:101530009A2AB22A3408CD3E86008701010842016A
:101540009A000130F00070084001B40708303402FE
:10155000031CAB2AAC2AAD2AB4010130F00070089C
:10156000B307B42A4E0119120800F3007308031DD3
:10157000BA2ABB2AC72A5B30F100023084009030BF
:101580008500013F8A00003F0A008A31D72A730391
:10159000031DCB2ACC2AD72A5D30F100023084000B
:1015A00090308500013F8A00003F0A008A31080020
:1015B000F400710872040319DE2ADF2AEE2A74355A
:1015C000A03E860087017108C03F7208C13F7408C1
:1015D000AC3E8600870173088100FB2A7435A03E6B
:1015E00086008701B330C03F1530C13F7408AC3E60
:1015F000860087018101080005304001CB001830CA
:1016000087313C278A3140014C08DE004B08DD0061
:101610005E081F39DB005D08DC005C08D600D701DE
:101620005B08D800D9015808D900D80156085804D9
:10163000DD0057085904DE005E08D5005D08D400BF
:10164000080096314A268B314001CA00C7014A087A
:10165000F60047308D31CD258B314730F7004C30C7
:101660008231FE228B3196312E268B31103E400185
:10167000CA00C7014A08F60047308D31CD258B31AD
:101680004730F7004C308231FE228B310800400198
:10169000370803194C2B4D2B472B3808D53E8600B5
:1016A00087010108B6003808DD3E86008701010881
:1016B000F2000130F1007108B80708303802031C4D
:1016C000622B632B642BB8014E019913013040014A
:1016D000B7024E019917720808004001300803193B
:1016E000722B732B6D2B3108BD3E860087010108DC
:1016F000AF003108C53E860087010108F2000130C5
:10170000F1007108B10708303102031C882B892BC6
:101710008A2BB1014E01991201304001B0024E01F5
:10172000991672080800400139080319982B992B63
:10173000932B4E01191B9D2B9E2BA22B710854013C
:101740009A00B72B191340013B08E53E860087013C
:10175000710881000130F2007208BB0708303B02BB
:10176000031CB32BB42BB52BBB010130B9024E01C6
:1017700019170800400133080319BF2BC02BBA2BDF
:101780004E01191AC42BC52BC92B710842019A00AE
:10179000DE2B191240013508CD3E86008701710805
:1017A00081000130F2007208B50708303502031CD1
:1017B000DA2BDB2BDC2BB5010130B3024E011916FD
:1017C000080041013C100230BB00EE2B96310B2685
:1017D0008B31082C963110268B31082C2E08F800FE
:1017E0000430A03E86008701413F8A00403F0A0046
:1017F0008B31F900FA017A08003A0319002CEA2B20
:101800007908023A0319E62B013A0319E62BEA2B71
:1018100008009531B5258C3141013C1C102C112C50
:101820001C2C963138268C31003A0319182C192CAF
:101830001C2C0F304101BA0041013A084001C70099
:10184000C801C735C80D2830470784001030483D0F
:1018500080388500013F8A00003F0A008C31410139
:10186000BA000800F901552C6A30840090308500D8
:10187000013F8A00003F0A008C31F8007408F7002D
:101880007308F60079087607840077080318770A4A
:1018900085000008780603194E2C4F2C512C00307F
:1018A0005C2C0130F6007608F90775087902031CF4
:1018B0005A2C5B2C342C013008004101BC156D2CD6
:1018C00096310B268C31892C9531CD258C31033006
:1018D000892C963110268C31892C2C08F80021088F
:1018E0008A0020080A008C31F900FA017A08003ACF
:1018F00003197B2C692C7908013A0319692C033AE6
:101900000319602C013A0319602C073A0319642C5F
:10191000692C08003C30F1000230840090308500D2
:10192000013F8A00003F0A008C313C30F100023058
:10193000840090308500013F8A00003F0A008C310E
:101940003C30F1000230840090308500013F8A0075
:10195000003F0A008C312030F100023084009030CA
:101960008500013F8A00003F0A008C3108004001D9
:10197000D400883157208C31003A0319C02CC12C77
:10198000B92C02304001CB00193086311C268C3135
:101990004001D5000330CB00193086311C268C3134
:1019A0004001D6005608D2005508D1000430D300BB
:1019B000520DD20CD10CD30BD82C540886008701C1
:1019C0005108C03F5208C13F08004001D40088318F
:1019D00068208C31003A0319EE2CEF2CE72C0430F0
:1019E0004001CB00193086311C268C314001D500D6
:1019F0000530CB00193086311C268C314001D600D1
:101A00005608D2005508D1000430D300520DD20C34
:101A1000D10CD30B062D5408860087015108C03F16
:101A20005208C13F08004001D400883179208D312F
:101A3000003A03191C2D1D2D152D06304001CB0039
:101A4000193086311C268D314001D5000730CB007E
:101A5000193086311C268D314001D6005608D2003F
:101A60005508D1000430D300520DD20CD10CD30B49
:101A7000342D5408860087015108C03F5208C13FE9
:101A800008004001DA0167308F31BF278D31FF3008
:101A900040016705F9000F306805FA005A309731A8
:101AA0009F278D31FF3040016905F9000F306A052D
:101AB000FA005A3097319F278D31FF3040016B0576
:101AC000F9000F306C05FA005A3097319F278D319D
:101AD0005A30F70058308231FE228D310800FA006A
:101AE000F901962D6C30840090308500013F8A000A
:101AF000003F0A008D31003A03197F2D802D962D6D
:101B000079087A07F8007808860001308700010814
:101B1000F6006830840090308500013F8A00003F65
:101B20000A008D310130F8007808F907770879024A
:101B3000031C9B2D9C2D722D0800FB007B088E3111
:101B400067268D31003A0319A62DA72D9E2DDE3074
:101B5000F5001730F6004C30F70097311A278D3119
:101B60000130F1000030F2004B30973191278D3178
:101B70000030F500F6000030F700F8009731252717
:101B80008D31963129268D31893133218D31013ABC
:101B90000319CB2DCC2DC42D0800F8007808F100D6
:101BA000F2018931AC218D317108F7007708F8070F
:101BB000780886008701760E0F398919F0380F39B9
:101BC000583E840001308500000881000130F70094
:101BD0007708F80778088600870176080F39583E9D
:101BE000840001308500000881000130F70077088B
:101BF000F807780886008701810108004001C901C3
:101C0000DD01162E5D08223E840098300318013E47
:101C100085000008DC005C08F60049308D31CD25D8
:101C20008D3101304001C7004708DD072230F10047
:101C30009830F2008931AC218D3140015D08C70038
:101C4000C80172084802031D272E71084702031CB1
:101C50002A2E2B2E022E4930F70056308231FE22DA
:101C60008D3108007808F2007708F100473089319B
:101C7000C5218E314001E701512E6708473E86009D
:101C800087010108F1000230840090308500013F97
:101C90008A00003F0A008E310130F90079084001C6
:101CA000E7077808F2007708F1008931AC218E311E
:101CB00040016708F900FA0172087A02031D622EDA
:101CC00071087902031C652E662E3D2E0800F10076
:101CD000F201F20A41013C196E2E6F2E9B2E710803
:101CE000B600BC103C153C100E30BA00F430B40005
:101CF0000130B500BC15B330A0001530A100AC0117
:101D0000B330A2001530A300AD01B330A4001530EC
:101D1000A500AE01B330A6001530A700AF0100301A
:101D2000A8000830A900B0019531B5258E31973152
:101D300077278E31F2017208080011304001CB0084
:101D4000CC0119308D319D258E3110304001CB00F2
:101D50000830CC0019308D319D258E310F30400177
:101D6000CB000330CC0019308D319D258E311730DA
:101D70004001CB000430CC0019308D319D258E31CF
:101D800019304001CB000230CC0019308D319D2537
:101D90008E3119304001CB00193086311C268E312E
:101DA0004001C60008004001D000022F4E08CF00BD
:101DB0000430CF36890BD92E4F080139D100510894
:101DC000031DE32EE42EEC2E4E18E72EE82EEA2E0D
:101DD00098160A2F98120A2F4E18EF2EF12E013066
:101DE000F22E00309731AD278E310A2F4E08F100C8
:101DF0000230840090308500013F8A00003F0A00D5
:101E00008F310A2F50084C3A0319D62E1F3A031966
:101E1000F62E0A2F08007C08D53E86008701810136
:101E200054011D1D142F152F202F7C08D53E860030
:101E300087018114420153088A0052080A008F3139
:101E400054019D1C242F252F302F7C08D53E860061
:101E500087010115420151088A0050080A008F319C
:101E60007C08D53E8600870101080319382F392FD9
:101E7000402F42014F088A004E080A008F31432F3D
:101E800089311B218F31080040013208BD3E860098
:101E90008701810142011D1D4E2F4F2F5B2F4001F5
:101EA0003208BD3E860087018114420149088A003C
:101EB00048080A008F3142019D1C5F2F602F6C2F54
:101EC00040013208BD3E86008701011542014708E6
:101ED0008A0046080A008F3140013208BD3E860064
:101EE000870101080319752F762F7D2F42014508C0
:101EF0008A0044080A008F31802F893193218F3165
:101F000008004E0199124430F1000F30F200963172
:101F100068268F314E0119129330F1000A30F20019
:101F200096316E268F31083042019F0090309D001F
:101F300024309E0040309B0003309C00B030F10004
:101F40001530F20096315C268F31D730F100153014
:101F5000F200963162268F31D330F1001530F20055
:101F6000963156268F314001AF01B501B4010830DA
:101F7000B300B201B101B0014E0199160800400151
:101F8000D700883157208F31003A0319C82FC92F45
:101F9000C12F58308C31B7248F314001570886004B
:101FA00087015808C03F5908C13F883168208F31E8
:101FB000003A0319DC2FDD2FD52F58308C31E52462
:101FC0008F3140015708023E860087015808C03F04
:101FD0005908C13F883179208F31003A0319F12F18
:101FE000F22FEA2F58308D3113258F3140015708D9
:101FF000043E860087015808C03F5908C13F0800C9
:102000006D340B34BA340B3400340034D634163407
:102010006E34163444340F3468341634F3341534C3
:1020200093340A3481340F3447340B3493340B34F3
:1020300000340034CD3416348C3416340B340F3461
:1020400086341634EF34153471340A34C23407340C
:10205000FC341534C4341634AB3416342934053406
:102060007F340734A43416345D340C340134163410
:10207000063416340B341634103416341534163432
:102080001A3416341F34163424341634E1340B3425
:1020900000340034003400340034003400340034A0
:1020A0000034003400340034003400340034003490
:1020B0000034003400340034003400340034003480
:1020C0000034003400340034003400340034003470
:1020D00046341734E8341634F2341634FC341634EB
:1020E000303417343B34173452341734B334163485
:0420F000F834063486
:102B6000080008000800013008004E010F1008009E
:102B70004301901208004E0119100800430111147E
:102B80000800430191140800430111150800430196
:102B90009115080043010C0808004E010F140800AD
:102BA0004001400808008931932195310800420115
:102BB0001D121D16080089311B2195310800540192
:102BC0001D121D1608004001450801390800430187
:102BD00091161116080043019112111608005401B4
:102BE0001E0C0139080042011E0C01390800F100D9
:102BF000710843018C0008004101BC10BB010E307C
:102C000008009531C1259631013008009531C12564
:102C10009631023008009531C12596310130080007
:102C20009531C4259631003008009531EB25963159
:102C3000053008009531E72596310A3008009531B6
:102C4000E7259631093008004101BC10BB010E3068
:102C5000080000308A3150229631080040012D08CA
:102C60000139013C08004E010C0E890C01390800A5
:102C70004301110E890C890C013908004E010F1C0B
:102C8000422E432E3E2E080001304001AC000130A0
:102C9000AD00080040010C0E890C0139013C080010
:102CA00040010C0D0C0D0139013C08007208420175
:102CB000C5007108C400080072084201C90071080B
:102CC000C800080072084201C7007108C600080069
:102CD00072084201CB007108CA0008007208420164
:102CE000CD007108CC00080072084201CF007108C5
:102CF000CE00080072084201D3007108D20008001B
:102D000072084201D1007108D00008007208420127
:102D1000D5007108D400080072084201D70071087C
:102D2000D600080072084101EE007108ED000800AD
:102D3000640080010131890B992E0034FE001200DD
:102D40001E00FE0B9F2E003441013C109531C7251B
:102D500096310430080041013C1436359531F72591
:102D60009631033008007508F2007408F1008831CC
:102D7000C220963108007E013F1FBF2EC02EC32EF9
:102D80009731BC279631080041013C140314360DDD
:102D90009531F72596310530080040013708031DAD
:102DA000D22ED42E0130D52E00300800400130083C
:102DB000031DDB2EDD2E0130DE2E00300800430126
:102DC0008F010830900091014F308D009012080063
:102DD0001430840090308500013F8A00003F0A00D3
:102DE000963108002230840090308500013F8A002F
:102DF000003F0A00963108001A30840090308500A8
:102E0000013F8A00003F0A009731080060305101FD
:102E10008D008F019101063093009001920108000E
:102E20004F0196019701980199019A019B019C011C
:102E30009D0108007608F2007508F1007708F3009C
:102E400000308A31D822973108007608F2007508E0
:102E5000F1007708F30002308A31D8229731080058
:102E60007103031D342F352F382F40011A133A2FC9
:102E700040011A1708007103031D3F2F402F432FF5
:102E800040011810452F4001181408007608F10081
:102E90001630840090308500013F8A00003F0A0010
:102EA00097310800400192137103031D582F592FC9
:102EB0005B2F98175C2F9813921708008A311622FF
:102EC0009731003A0319652F662F5E2F4001BD012F
:102ED0003E080800712F96313E2697318C31092427
:102EE00097314101BC18752F762F6B2F08004301D5
:102EF000901A7B2F7C2F832F8F0108309000910137
:102F00004F308D0090160800FB008A31FC2297316B
:102F10007B088600870140015408C03F5508C13F27
:102F20000800F3004101BC1D962F972F9E2F7308B8
:102F3000B7007208B9007108B800BC110800FB00A6
:102F40007908F6007B088D31CD2597317A08F60097
:102F50007B088D31CD25973108004001CD0001302F
:102F6000FB004D08FB022D087B06FE397B06AD00F9
:102F70008931FA21973108004001451441016D085B
:102F80006E040319C42FC52FCA2F6E088A006D085E
:102F90000A0097317E013F1308000230F100003033
:102FA000F20078089731912797310030F500F6004C
:102FB000F70197311A279731043008000130F100EA
:102FC0000030F20078089731912797310030F500F2
:102FD000F600F70197311A279731043008000130C5
:102FE000F1000030F20078089731912797310030D6
:102FF000F500F600F70197311A27973102300800E3
:10300000533454345234453441344D345F344F34A6
:10301000503445344E3400345234653462346F34A5
:103020006F34743469346E3467340D340A34443484
:103030004934533443344F344E344E34453443349E
:103040005434003431342E3431342E34303400349E
:1030500045344E3444340D340A3443344D3444340E
:0C3060003E34203422349834223498345A
:020000040001F9
:08000000FF3FFF3FFF3FFF3F00
:0A000E00EC3FFF3F9F3FFF3FFF3F25
:00000001FF
