:1000000080315528303430347E1480314E01161E34
:100010000A280B2813280C1E0E280F2813289631A7
:10002000CC26803153280B1F162817285328191F58
:100030001A281B2826280F1F1E281F2826284201A1
:100040005F088A005E080A0080315328991F29281A
:100050002A2835288F1F2D282E28352842015D0893
:100060008A005C080A0080315328191E3828392874
:1000700044280F1E3C283D284428420155088A0088
:1000800054080A0080315328991E472848285328CD
:100090008F1E4B284C285328420153088A005208CF
:1000A0000A00803153287E100900803157288031A2
:1000B00002208031ED00803103208031EE009B3042
:1000C000840088308500A030860001308700113020
:1000D0009631AF268031FC01483084000030850025
:1000E00025309631A9268031A0308400003085006B
:1000F00047309631A92680312030840001308500B8
:100100002C309631A92680312030840002308500C1
:1001100040309631A9268031A0308400023085001D
:1001200050309631A926803120308400033085007C
:1001300050309631A9268031A030840003308500EC
:1001400050309631A92680317E1040018031A82898
:1001500089313C2180315030F100A0308931262195
:1001600080318B170B178E316F2680318431052437
:1001700080319631552680319531DE258031013A26
:10018000031DC328C4284E298A3168228031963144
:1001900044268031013A031DCE28CF28E7284E019E
:1001A0008C128931102180318D3176258031883152
:1001B000AC2080318B31552380318E310526803142
:1001C000BC2897316F27803181317B2180318A3182
:1001D0004C228031003A031DEE28EF28E1282F2918
:1001E0000030840090308500013F8A00003F0A0003
:1001F00080314001C6005108A03E860002308700D1
:10020000460881005108A03E8600023087000D306C
:10021000010603190C290D291E295108A03E86004C
:10022000023087000A3001060319172918291E29F0
:100230004F305106031D1D291E292B295108A03EB0
:100240008600023087008101A03082314722803150
:100250004001D1012F290130C6004608D1070630E0
:10026000840090308500013F8A00003F0A00813100
:10027000003A031D3C293D29F028BC2897316F27FF
:1002800080314001C7004708F100023084009030FF
:100290008500013F8A00003F0A0081318A314C22EB
:1002A0008031003A031D552956293E296A2900301C
:1002B000840090308500013F8A00003F0A008131B0
:1002C000F6006830840090308500013F8A00003FCE
:1002D0000A0081310630840090308500013F8A0099
:1002E000003F0A008131003A031D772978295729F8
:1002F000BC28803155284001B300272A0230E8008D
:10030000462A3308E6000330E800462A3A30330232
:10031000031C8B298C29952933085F39C93EAD0010
:10032000FF3003180030AE009C293308D03EAD00EA
:10033000FF3003180030AE002D08E7000430E8005D
:10034000462A3A303302031CA629A729B0293308CC
:100350005F39C93EAF00FF3003180030B000B72945
:100360003308D03EAF00FF3003180030B0006708FC
:10037000AB000330AB35FF3E031DBA292B352F07E9
:10038000E7000530E800462A3A303302031CC92949
:10039000CA29D32933085F39C93ECC00FF3003187E
:1003A0000030CD00DA293308D03ECC00FF300318EE
:1003B0000030CD000130E7026708031DE029E12984
:1003C000E329E801462A0630E800462A3A3033029B
:1003D000031CEB29EC29F52933085F39C93EB1002C
:1003E000FF3003180030B200FC293308D03EB100C2
:1003F000FF3003180030B2004D08AC004C08AB00D1
:10040000AB0EAC0EF030AC052B080F39AC04F0305D
:10041000AB0531082B07CC0032082C3DCD004C0831
:10042000A70066088E31DC26813101304001E702E9
:100430006708031D1C2A1D2AC129E1295B303306E8
:10044000031D232A242A462AE801E80A462A6808C6
:10045000AB00AC012C08003A03192F2A1E2A2B08E6
:10046000003A03191E2A013A03197E29033A031997
:100470008129013A03198629073A0319A129013A6A
:100480000319C429033A0319E6291E2A0800F900B2
:100490007908F1000230F2008931C92182317108F6
:1004A0000907F8005B30F600683084009030850062
:1004B000013F8A00003F0A008231400169080F397C
:1004C000A03E8600013087000108F60068308400F5
:1004D00090308500013F8A00003F0A0082310130E0
:1004E000F70077084001E9075330F60068308400D0
:1004F00090308500013F8A00003F0A008231780871
:10050000F7000430F736890B822A77080F39A03EAE
:100510008600013087000108F600683084009030C2
:100520008500013F8A00003F0A00823178080F39B8
:10053000A03E8600013087000108F6006830840084
:1005400090308500013F8A00003F0A008231DC2A9A
:1005500079088600023087000108F7000430F7367A
:10056000890BAF2A77080F39A03E8600013087003B
:100570000108F6006830840090308500013F8A0051
:10058000003F0A00823179088600023087000108A6
:100590000F39A03E8600013087000108F600683060
:1005A000840090308500013F8A00003F0A008231BC
:1005B0000130F7007708F9077908860002308700D4
:1005C0000108031DE42AE52AA82A5D30F6006830F8
:1005D000840090308500013F8A00003F0A0082318C
:1005E0000800FA005B30F600683084009030850027
:1005F000013F8A00003F0A008231400169080F393B
:10060000A03E8600013087000108F60068308400B3
:1006100090308500013F8A00003F0A00833101309D
:10062000F80078084001E9077A08F600683084008D
:1006300090308500013F8A00003F0A00833177082F
:10064000F100F2018931C92182317108F800720884
:10065000F9000430F936F80C890B2A2B78080F3989
:10066000A03E8600013087000108F6006830840053
:1006700090308500013F8A00003F0A0083317708EF
:10068000F100F2018931C921823171080F39A03E90
:100690008600013087000108F60068308400903041
:1006A0008500013F8A00003F0A008331692B7708EB
:1006B000860087010108F6006830840090308500CC
:1006C000013F8A00003F0A0083310130F8007808BA
:1006D000F7077708860087010108031D702B712B2F
:1006E000572B5D30F6006830840090308500013F64
:1006F0008A00003F0A0083310800F3016A30840059
:1007000090308500013F8A00003F0A008331F400E9
:100710006A30840090308500013F8A00003F0A0063
:100720008331F5006A30840090308500013F8A00F3
:10073000003F0A008331F600BC2B4F307506031DC5
:10074000A22BA32BC42B4B307606031DA82BA92B61
:10075000C42BF301F30AC42B72307506031DB12BB1
:10076000B22BC42B72307606031DB72BB82BC42BCB
:10077000F301C42B0030042C7408413A03199D2B5B
:10078000043A0319AC2BBA2B6A30840090308500F0
:10079000013F8A00003F0A0083316A3084009030B4
:1007A0008500013F8A00003F0A0083316A308400DF
:1007B00090308500013F8A00003F0A0083316A3093
:1007C000840090308500013F8A00003F0A00833199
:1007D0006A30840090308500013F8A00003F0A00A3
:1007E00083316A30840090308500013F8A00003FE9
:1007F0000A0083316A30840090308500013F8A000E
:10080000003F0A00843173080800F101F10A7430D6
:10081000840090308500013F8A00003F0A00843147
:10082000F101F10A7230840090308500013F8A00A6
:10083000003F0A0084310130F4000030F5007630CA
:10084000840090308500013F8A00003F0A00843117
:10085000F1017230840090308500013F8A00003F32
:100860000A008431F101F10A703084009030850073
:10087000013F8A00003F0A008431C830F400003094
:10088000F5007630840090308500013F8A00003FFB
:100890000A008431542C6A30840090308500013F76
:1008A0008A00003F0A0084316E3084009030850059
:1008B000013F8A00003F0A008431003A031D612C89
:1008C000622C4B2C0800F6000130F3020030F43BA0
:1008D000730A031D6F2C740A031D6F2C702C7F2C60
:1008E000F101F201B52C0130F5007508F607013071
:1008F000F1070030F23D0130F3020030F43B76089E
:1009000086000330870001080319872C882CA72C48
:10091000710884007208850012000319902C912C34
:10092000A72C730874040319962C972CA72C710814
:100930008400720885000008F50076088600033000
:100940008700010875060319A62CA72C732C7608BE
:100950008600033087007108840072088500000853
:100960000102F100F201031CF2030800963149264E
:100970008431003A0319BD2CBE2CEC2CCB2C9631C3
:1009800012268431082D963117268431082D963190
:1009900021268431082D41012F08F8000630A03EA1
:1009A00086008701413F8A00403F0A008431F900F8
:1009B000FA017A08003A0319DE2CC72C7908013AAB
:1009C0000319C72C033A0319BF2C013A0319C32C8E
:1009D000073A0319C72CC72C41013C101730A03E21
:1009E00086008701403F84008501810A0008963116
:1009F0000826843101304101B8020030B93B380883
:100A00003904031D042D052D072D0630082D033054
:100A100008002030F1000230840090308500013F52
:100A20008A00003F0A0085313E30F1000230840028
:100A300090308500013F8A00003F0A0085313E303A
:100A4000F1000230840090308500013F8A00003FB1
:100A50000A0085313E30F10002308400903085007C
:100A6000013F8A00003F0A0085312030F10002304A
:100A7000840090308500013F8A00003F0A008531E4
:100A80000D30F1000230840090308500013F8A0073
:100A9000003F0A0085310A30F100023084009030B6
:100AA0008500013F8A00003F0A00853108004001AF
:100AB000A2007708780403195E2D5F2DA22D780817
:100AC000F2007708F1008931C921853172084001AF
:100AD000A1007108A000942D7808F2007708F100B9
:100AE0002108F4002008F3002208843163248531B2
:100AF00071087204031D7D2D7E2D812D4001220879
:100B0000A32D77088400780885000008F900FA0111
:100B10007908F1007A08F20040012208013E89318B
:100B2000E22185314001A20022080319982D992D58
:100B3000A22D22088600033087000108031DA12D85
:100B4000A22D6C2D003008006A30840090308500A2
:100B5000013F8A00003F0A0085314001C4005F0365
:100B6000031DB32DB42DDE2D25304406031DB92DF4
:100B7000BA2DCC2DDF016208860003308700810189
:100B80006408C2007830840090308500013F8A00FC
:100B9000003F0A008531ED2D6408630762020318E7
:100BA000D22DD32DED2D6208860003308700440836
:100BB00081000130C3004308E207ED2D25304406D3
:100BC000031DE32DE42DE92DDF01DF0A6408E200B7
:100BD000ED2DE001E00A4408E10040016008080052
:100BE0004001A5002A30A9000230A7000030A8006B
:100BF000400125088E3139268531003A0319012E2E
:100C0000022EF82D0230F5000830F6002930F700EA
:100C100097312B2785310130F1000030F20024306C
:100C20009731A22785310030F500F6000030F7003B
:100C3000F80097313627853196313A26853189314A
:100C4000812185314001A60026030319282E292E73
:100C50001F2E2608031D2D2E2E2E2F2E392EFF304F
:100C6000A707FF30A83D27082804031D382E392E7A
:100C7000F82D2908080040019C01313098009901A5
:100C8000C1309A0008309600DE309200EF309300B9
:100C9000253094007E01CE01C930C3000E30B8006B
:100CA000E501C401B901CF01E601BA01C501D001D6
:100CB000FF30BB00FF30C600FF30D1003F30BC002A
:100CC0003F30C7003F30D2003F133E133D17FF3087
:100CD000F1000730F2009631A32686314E01161638
:100CE00009307D01C50013307E01990014309A004F
:100CF0002530A4000F309C0015307D01CD000A3056
:100D0000C6000D30CB00080030304001A20030306A
:100D1000A5003030A300201E8E2E8F2E922E313053
:100D2000A400942E3030A40020080F39303EA200D9
:100D3000211E9B2E9C2E9F2E3130A500A12E3030DF
:100D4000A50021080F39303EA3007C304401A000EB
:100D50004F30A1002C30A200400124084401A30020
:100D6000400122084401A4002C30A50040012508C0
:100D70004401A600400123084401A7000D30A8004B
:100D80000A30A9000A30F70020308731D127863198
:100D900083317D23863108004001AA0040012A08E2
:100DA0008E3139268631003A0319D72ED82ECE2E11
:100DB0001330F5000830F6002B30F70097312B2761
:100DC00086310130F1000030F20024309731A22743
:100DD00086310030F500F6000030F700F80097315A
:100DE0003627863196313A268631893181218631FE
:100DF000013A0319FC2EFD2EF52E40012C08A70008
:100E00002B08A6002708A600A7012B08A900A80107
:100E100026082804A40027082904A5000800410189
:100E20003708860087019531D82587318100013048
:100E3000F90079084101B7070130B8020030B93B29
:100E4000380839040319252F262F2B2F9531F82523
:100E500087310530512FBC15352F9631302687311B
:100E6000512F96312B268731512F2C08F80021085D
:100E70008A0020080A008731F900FA017A08003A4E
:100E80000319432F312F7908013A0319312F033AFF
:100E900003192D2F013A03192D2F073A0319312F6A
:100EA000312F08004001B000883168208731003AB6
:100EB00003195B2F5C2F542F31308C31EC24873198
:100EC00040013008860087013108C03F3208C13F29
:100ED000883179208731003A03196F2F702F682FDE
:100EE00031308D311A25873140013008023E8600AD
:100EF00087013108C03F3208C13F88318A208731DD
:100F0000003A0319842F852F7D2F31308D314825EC
:100F1000873140013008043E860087013108C03F18
:100F20003208C13F08004E0199134C30F1000F30D8
:100F3000F2009631972687314E011913A530F10042
:100F40000A30F20096319D268731083054019F0007
:100F500090309D0024309E0040309B0003309C0068
:100F6000C030F1001530F20096318B268731F03019
:100F7000F1001530F200963191268731EC30F10006
:100F80001530F2009631852687314001D901DE0106
:100F9000DD010830DC00FC01DB01DA014E019917AC
:100FA0000800F900FA01F82F6C30840090308500B9
:100FB000013F8A00003F0A008731003A0319E12F00
:100FC000E22FF82F7A087907F800780886000230B7
:100FD00087000108F6006830840090308500013FEA
:100FE0008A00003F0A0087310130F8007808FA07CC
:100FF00077087A02031CFD2FFE2FD42F080008006B
:10100000053008000130F1000030F2007808973117
:10101000A22788310030F500F600F70197312B2721
:101020008831023008000230F1000030F200780808
:101030009731A22788310030F500F600F70197318B
:101040002B278831023008000230F1000030F20016
:1010500078089731A22788310030F500F600F701B3
:1010600097312B278831043008000130F10000301F
:10107000F20078089731A22788310030F500F60099
:10108000F70197312B278831023008000230F10038
:101090000030F20078089731A22788310030F5003F
:1010A000F600F70197312B27883102300800013014
:1010B000F1000030F20078089731A2278831003023
:1010C000F500F600F70197312B278831043008002E
:1010D00002304001A40019308531F02588310139F2
:1010E000031D73287528013076280030FB007B082B
:1010F000080004304001A40019308531F025883102
:101100000139031D84288628013087280030FB0020
:101110007B08080006304001A40019308531F02515
:1011200088310139031D952897280130982800300F
:10113000FB007B080800303431343234333434342B
:101140003534363437343834393441344234433426
:1011500044344534463400349631612688314001A8
:10116000A000A1012008F60021308D31D42588315E
:101170002130F70050308231F1228831080095315A
:10118000E12588314001A000A1012008F6002130AE
:101190008D31D42588312130F70041308231F12260
:1011A00088310800F2007208F30073088600870196
:1011B000F30A7108840003308500F10A0008C03F7B
:1011C0008908031DE428E528D528080047304B018D
:1011D0009F000B309D00DC309C001D084001C900C1
:1011E0004B011C084001C8004E018C1290304B018D
:1011F0009E00080003290B30F3006230890BFE28A3
:10120000F30BFE2800320130F1020030F23B710A8C
:10121000031D0E29720A031D0E290F29FB28080041
:101220004001B8013D3097319527893140013E0892
:10123000FA003D08F90038309731B027893138304D
:10124000F70054308231F12289310800F20072082F
:1012500003192B292C293A2902307102031C312948
:1012600032293A2972084001E4007108FF3EE30088
:1012700001303B2900300800973121278931963110
:10128000F026893186313B268931973117278931FC
:101290008831E62089318F31C22789318731932700
:1012A0008931080024304401A0002430A1002430FA
:1012B000A2000330F70020308731D12789312D304B
:1012C000F3009830F4000530F5008C316724893143
:1012D00008007C08D53E860087015401190881006A
:1012E0000130F0007008FC0708307C02031C7929EB
:1012F0007A297B29FC010130F00070084001DA07EF
:101300000800F101F10A4101BC18872988299729B1
:101310003C11FF30B6009531C32589319531C9257F
:1013200089319531C625893141013B08F1007108A9
:101330000800780886008701403FF100413FF20035
:101340007808023E8600870101089731A22789317B
:101350000030F500F600F70197312B278931023074
:101360000800780886008701403FF100413FF20005
:101370007808023E8600870101089731A22789314B
:101380000030F500F600F70197312B278931023044
:1013900008007208F5007108F400D2290130F10745
:1013A0000030F23D71088400720885001200031DB0
:1013B000DA29DB29CE2974087102F1007508723B25
:1013C000F2000800F300730886000330870001086C
:1013D0007106031DEC29ED29EF297308FA2973081A
:1013E000860003308700F30A0108031DF829F92954
:1013F000E3290030080040015508443E86000130D2
:1014000087004201190881000130F0007008400196
:10141000D50708305502031C0E2A0F2A102AD501C1
:101420000130F0007008D30708002D304401A000FF
:101430002D30A1002D30A2000D30A3000A30A400F1
:101440000530F70020308731D1278A312830F3006A
:101450009830F4000530F5008C3167248A3108009B
:10146000893152218A311430F4000030F500763091
:10147000840090308500013F8A00003F0A008A31D5
:1014800040014F08A1004E08A000863184268A3111
:101490008A3115228A310800400160080319512A57
:1014A000522A542A0130672A6E3084009030850019
:1014B000013F8A00003F0A008A31003A0319612A7D
:1014C000622A662A8531A4258A31672A00300800FD
:1014D000963104268A31003A03196F2A702A832A2A
:1014E00040016A10EC170130FB007B08D007023086
:1014F0005002031C7C2A7D2A832A8831BF208A312E
:101500004001D001EC1308004001A200A301A30A8E
:101510004101BC188C2A8D2AA22ABC144001A301C7
:1015200022080319942A952A992A4101BA01BA0A74
:101530009C2A02304101BA009531CC258A3197317D
:101540007B278A31400123080800083040015C02F3
:101550000318AB2AAC2AC42A5D08DD3E8600870149
:10156000010854019A000130F00070084001DD07C5
:1015700008305D02031CBD2ABE2ABF2ADD010130EE
:10158000F0007008DC07C62A4E0119130800083065
:10159000400156020318CD2ACE2AE62A5708C53E36
:1015A00086008701010842019A000130F0007008AE
:1015B0004001D70708305702031CDF2AE02AE12A3E
:1015C000D7010130F0007008D607E82A4E01191241
:1015D0000800F3007308031DEE2AEF2AFB2A5B3094
:1015E000F1000230840090308500013F8A00003F06
:1015F0000A008A310B2B7303031DFF2A002B0B2BD0
:101600005D30F1000230840090308500013F8A0097
:10161000003F0A008B310800F400710872040319BE
:10162000122B132B222B7435A03E860087017108E4
:10163000C03F7208C13F7408AC3E86008701730842
:1016400081002F2B7435A03E86008701C130C03F3A
:101650001530C13F7408AC3E860087018101080047
:1016600005304001A40018308631CC268B31400172
:101670002508B7002408B60037081F39B40036081B
:10168000B5003508AF00B0013408B100B20131082F
:10169000B200B1012F083104B60030083204B7009F
:1016A0003708AE003608AD00080096315B268B3156
:1016B0004001A300A0012308F60020308D31D4257D
:1016C0008B312030F7004C308231F1228B31963152
:1016D0003F268B31103E4001A300A0012308F600F5
:1016E00020308D31D4258B312030F7004C308231C1
:1016F000F1228B31080040015A080319802B812BFD
:101700007B2B5B08CD3E860087010108D9005B0872
:10171000D53E860087010108F2000130F100710812
:10172000DB0708305B02031C962B972B982BDB0101
:101730004E01991301304001DA024E0199177208E7
:10174000080040015C080319A62BA72BA12B4E0112
:10175000191BAB2BAC2BB02B710854019A00C52B75
:10176000191340015E08DD3E860087017108810083
:101770000130F2007208DE0708305E02031CC12B44
:10178000C22BC32BDE010130DC024E011917080009
:10179000400156080319CD2BCE2BC82B4E01191A28
:1017A000D22BD32BD72B710842019A00EC2B1912A4
:1017B00040015808C53E860087017108810001304C
:1017C000F2007208D80708305802031CE82BE92BF6
:1017D000EA2BD8010130D6024E011916080040014B
:1017E00053080319F42BF52BEF2B5408BD3E86004C
:1017F00087010108D2005408443E8600013087006A
:101800000108F2000130F1007108D40708305402D9
:10181000031C0B2C0C2C0D2CD4014E019912013001
:101820004001D3024E0199167208080041013C1094
:101830000230BB00232C96311C268C313D2C963176
:1018400021268C313D2C2E08F8000430A03E860065
:101850008701413F8A00403F0A008C31F900FA01BC
:101860007A08003A0319352C1F2C7908023A03191B
:101870001B2C013A03191B2C1F2C08009531C32582
:101880008C3141013C1C452C462C512C963149266B
:101890008C31003A03194D2C4E2C512C0F30410144
:1018A000BA0041013A084001A000A101A035A10DF4
:1018B0002830200784001030213D80388500013F0A
:1018C0008A00003F0A008C314101BA000800F9018A
:1018D0008A2C6A30840090308500013F8A00003FE6
:1018E0000A008C31F8007408F7007308F6007908D4
:1018F0007607840077080318770A850000087806C1
:101900000319832C842C862C0030912C0130F60096
:101910007608F90775087902031C8F2C902C692C26
:10192000013008004101BC15A22C96311C268C31D7
:10193000BE2C9531DB258C310330BE2C963121260F
:101940008C31BE2C2C08F80021088A0020080A00DF
:101950008C31F900FA017A08003A0319B02C9E2C58
:101960007908013A03199E2C033A0319952C013A80
:101970000319952C073A0319992C9E2C08003C302A
:10198000F1000230840090308500013F8A00003F62
:101990000A008C313C30F100023084009030850028
:1019A000013F8A00003F0A008C313C30F1000230D8
:1019B000840090308500013F8A00003F0A008C318E
:1019C0002030F1000230840090308500013F8A0011
:1019D000003F0A008C3108004001AD0088316820CA
:1019E0008C31003A0319F52CF62CEE2C0230400114
:1019F000A40019308531F0258C314001AE00033050
:101A0000A40019308531F0258C314001AF002F083A
:101A1000AB002E08AA000430AC002B0DAB0CAA0CB6
:101A2000AC0B0D2D2D08860087012A08C03F2B081E
:101A3000C13F08004001AD00883179208D31003A66
:101A40000319232D242D1C2D04304001A40019302E
:101A50008531F0258D314001AE000530A4001930EC
:101A60008531F0258D314001AF002F08AB002E08E5
:101A7000AA000430AC002B0DAB0CAA0CAC0B3B2D18
:101A80002D08860087012A08C03F2B08C13F0800A7
:101A90004001AD0088318A208D31003A0319512D63
:101AA000522D4A2D06304001A40019308531F02511
:101AB0008D314001AE000730A40019308531F0258A
:101AC0008D314001AF002F08AB002E08AA00043072
:101AD000AC002B0DAB0CAA0CAC0B692D2D088600AD
:101AE00087012A08C03F2B08C13F08004001B3010D
:101AF0004030873152278D31FF3040014005F900D9
:101B00000F304105FA0033309731B0278D31FF3067
:101B100040014205F9000F304305FA003330973198
:101B2000B0278D31FF3040014405F9000F304505E5
:101B3000FA0033309731B0278D313330F700583009
:101B40008231F1228D310800FB007B088E3139266D
:101B50008D31003A0319AD2DAE2DA52DEF30F500D6
:101B60001730F6002530F70097312B278D310130E3
:101B7000F1000030F20024309731A2278D3100307F
:101B8000F500F6000030F700F800973136278D3168
:101B900096313A268D31893181218D31013A0319EF
:101BA000D22DD32DCB2D0800F8007808F100F201DA
:101BB0008931C9218D317108F7007708F807780855
:101BC00086008701760E0F398919F0380F39A03E4B
:101BD000840001308500000881000130F70077089B
:101BE000F80778088600870176080F39A03E840040
:101BF00001308500000881000130F7007708F80700
:101C0000780886008701810108004001A201B60121
:101C10001D2E3608223E840098300318013E8500B0
:101C20000008B5003508F60022308D31D4258E31FC
:101C300001304001A0002008B6072230F1009830A2
:101C4000F2008931C9218E3140013608A000A1017E
:101C500072082102031D2E2E71082002031C312E52
:101C6000322E092E2230F70056308231F1228E3189
:101C70000800F100F201F20A41013C19402E412E08
:101C80006D2E7108B600BC103C153C100E30BA0029
:101C9000F430B4000130B500BC15C130A0001530DF
:101CA000A100AC01C130A2001530A300AD01C130CC
:101CB000A4001530A500AE01C130A6001530A70064
:101CC000AF010030A8000830A900B0019531C3254C
:101CD0008E31973188278E31F20172080800113059
:101CE0004001A400A50119308D31A4258E3110309A
:101CF0004001A4000830A50019308D31A4258E3193
:101D00000F304001A4000330A50019308D31A42507
:101D10008E3116304001A4008030A50019308D317D
:101D2000A4258E3119304001A4008030A50019305F
:101D30008D31A4258E3116304001A4001930853133
:101D4000F0258E314001EB0008004001C000400842
:101D5000F10020308831D2208E314001C101C42EE3
:101D60004108203E860087010108F100023084000E
:101D700090308500013F8A00003F0A008E3101301B
:101D8000F60076084001C1074008F100FF39031D45
:101D90000330F2008931C9218E3140014108F6003B
:101DA000F70172087702031DD72E71087602031C13
:101DB000DA2EDB2EB02E08004001A9000B2F2708D9
:101DC000A8000430A836890BE22E28080139AA00A1
:101DD0002A08031DEC2EED2EF52E2718F02EF12EDD
:101DE000F32E9816132F9812132F2718F82EFA2E69
:101DF0000130FB2E00309731BE278E31132F27087C
:101E0000F1000230840090308500013F8A00003FDD
:101E10000A008F31132F29084C3A0319DF2E1F3A7D
:101E20000319FF2E132F08008C31BF248F31173078
:101E3000F7009830F80040014208853157258F316E
:101E4000003A0319242F252F292FFB014001E5011A
:101E50003F2F0030F7009830F800400142088531EC
:101E600057258F31003A0319362F372F3D2FFB01AD
:101E7000FB0A4001E501E50A3F2F0230FB0040016B
:101E800042088E31A5268F31853109258F317B0897
:101E90008A31E9228F3108007C08CD3E8600870117
:101EA000810154011D1D552F562F612F7C08CD3EF9
:101EB00086008701811442015B088A005A080A00E3
:101EC0008F3154019D1C652F662F712F7C08CD3EEC
:101ED000860087010115420159088A0058080A0046
:101EE0008F317C08CD3E8600870101080319792FC8
:101EF0007A2F812F420157088A0056080A008F3135
:101F0000842F893169218F31080040015508BD3E79
:101F100086008701810142011D1D8F2F902F9C2F6C
:101F200040015508BD3E86008701811442015108D9
:101F30008A0050080A008F3142019D1CA02FA12F5A
:101F4000AD2F40015508BD3E8600870101154201B5
:101F50004F088A004E080A008F3140015508BD3EE7
:101F60008600870101080319B62FB72FBE2F420143
:101F70004D088A004C080A008F31C12F8931FB219E
:101F80008F3108004E0199128530F1000F30F200B8
:101F9000963179268F314E011912C730F1000A307F
:101FA000F20096317F268F31083042019F00903039
:101FB0009D0024309E0040309B0003309C00BF30C9
:101FC000F1001530F20096316D268F31E830F100C6
:101FD0001530F200963173268F31E430F100153060
:101FE000F200963167268F314001D201D801D70126
:101FF0000830D600D501D401D3014E01991608004E
:10200000EF340B34C8340B3400340034E734163466
:102010007F34163485340F34793416340034163452
:10202000C7340A34C2340F347B340B34A1340B343C
:1020300000340034DE3416349D3416344C340F34FE
:1020400097341634FC341534A5340A3493340734E9
:102050000D341634D5341634BC341634B634043446
:102060000F340734B534163492340C341234163429
:10207000173416341C3416342134163426341634EE
:102080002B341634303416343534163416340C34BC
:1020900000340034003400340034003400340034A0
:1020A0000034003400340034003400340034003490
:1020B0000034003400340034003400340034003480
:1020C0000034003400340034003400340034003470
:1020D00057341734F9341634033417340D341734A5
:1020E000413417344C34173463341734C434163441
:0420F00014340F3461
:102B7E0008000800013008004E010F100800430144
:102B8E00901208004E01191008004301111408009C
:102B9E0043019114080043011115080043019115DA
:102BAE00080043010C0808004E010F1408004001F4
:102BBE006508080040016C0808008931FB21953139
:102BCE00080042011D121D16080089316921953138
:102BDE00080054011D121D1608004301911611160E
:102BEE000800430191121116080054011E0C013900
:102BFE00080042011E0C0139080040016A08013923
:102C0E000800F100710843018C0008004101BC105E
:102C1E00BB010E3008009531CF25963101300800EA
:102C2E009531CF259631023008009531CF2596315A
:102C3E00013008009531D2259631003008009531CB
:102C4E00F8259631053008009531F42596310A3075
:102C5E0008009531F4259631093008004101BC1069
:102C6E00BB010E30080000308A31842296310800F4
:102C7E0040014F080139013C08004E010C0E890C31
:102C8E00013908004301110E890C890C0139080025
:102C9E004E010F1C532E542E4F2E080001304001B2
:102CAE00CE000130CF00080040010C0E890C013916
:102CBE00013C080040010C0D0C0D0139013C0800CF
:102CCE0072084201CD007108CC0008007208420162
:102CDE00D1007108D000080072084201CF007108BF
:102CEE00CE00080072084201D3007108D20008001D
:102CFE0072084201D5007108D40008007208420122
:102D0E00D7007108D600080072084201DB00710876
:102D1E00DA00080072084201D9007108D8000800D4
:102D2E0072084201DD007108DC00080072084201E1
:102D3E00DF007108DE00080072084101E80071082A
:102D4E00E7000800640080010131890BAA2E0034CF
:102D5E00FE0012001E00FE0BB02E003441013C108E
:102D6E009531D52596310430080041013C14363595
:102D7E00963108269631033008007508F200740863
:102D8E00F1008831FA20963108007E013F1FD02EC7
:102D9E00D12ED42E9731CD279631080041013C1407
:102DAE000314360D96310826963105300800400181
:102DBE005A08031DE32EE52E0130E62E00300800E2
:102DCE0040015308031DEC2EEE2E0130EF2E003085
:102DDE00080043018F010830900091014F308D00A3
:102DEE00901208001430840090308500013F8A0054
:102DFE00003F0A0097310800223084009030850091
:102E0E00013F8A00003F0A00973108001A30840003
:102E1E0090308500013F8A00003F0A00973108007C
:102E2E00603051018D008F019101063093009001A9
:102E3E00920108004F0196019701980199019A019C
:102E4E009B019C019D0108007608F2007508F100B7
:102E5E007708F30000308B310C2397310800760889
:102E6E00F2007508F1007708F30002308B310C2365
:102E7E00973108007103031D452F462F492F40013E
:102E8E001A134B2F40011A1708007103031D502F00
:102E9E00512F542F40011810562F400118140800BE
:102EAE007608F1001630840090308500013F8A00CC
:102EBE00003F0A0097310800400192137103031D71
:102ECE00692F6A2F6C2F98176D2F98139217080081
:102EDE008A314C229731003A0319762F772F6F2FB4
:102EEE004001E00161080800822F96314F2697318C
:102EFE008C313E2497314101BC18862F872F7C2FB1
:102F0E0008004301901A8C2F8D2F942F8F010830BB
:102F1E00900091014F308D0090160800FB008B3110
:102F2E00302397317B088600870140012D08C03F72
:102F3E002E08C13F0800F3004101BC1DA72FA82F8A
:102F4E00AF2F7308B7007208B9007108B800BC1132
:102F5E000800FB007908F6007B088D31D4259731E7
:102F6E007A08F6007B088D31D42597310800400190
:102F7E00A6000130FB002608FB024F087B06FE3937
:102F8E007B06CF008A3130229731080040016A1447
:102F9E004101670868040319D52FD62FDB2F680867
:102FAE008A0067080A0097317E013F13080002303D
:102FBE00F1000030F20078089731A22797310030E7
:102FCE00F500F600F70197312B27973104300800F2
:102FDE000130F1000030F20078089731A2279731C6
:102FEE000030F500F600F70197312B2797310430AA
:102FFE000800533454345234453441344D345F3424
:10300E004F34503445344E340034523465346234C7
:10301E006F346F34743469346E3467340D340A345B
:10302E0044344934533443344F344E344E3445349F
:10303E0043345434003431342E3431342E3430345D
:10304E00003445344E3444340D340A3443344D3454
:0E305E0044343E3420342234983422349834E2
:020000040001F9
:08000000FF3FFF3FFF3FFF3F00
:0A000E00EC3FFF3F9F3FFF3FFF3F25
:00000001FF
