:1000000080315528303430347E1480314E01161E34
:100010000A280B2813280C1E0E280F2813289631A7
:10002000BB26803153280B1F162817285328191F69
:100030001A281B2826280F1F1E281F2826284201A1
:1000400057088A0056080A0080315328991F29282A
:100050002A2835288F1F2D282E283528420155089B
:100060008A0054080A0080315328191E382839287C
:1000700044280F1E3C283D28442842014D088A0090
:100080004C080A0080315328991E472848285328D5
:100090008F1E4B284C28532842014B088A004A08DF
:1000A0000A00803153287E100900803157288031A2
:1000B00002208031EE00803103208031EF00893052
:1000C0008400883085005830860001308700113068
:1000D00096319E268031FC0120308400003085005E
:1000E0002730963198268031A0308400003085007A
:1000F0004D309631982680312030840001308500C3
:100100002430963198268031A0308400013085005B
:1001100040309631982680312030840002308500AE
:100120005030963198268031A0308400023085000E
:10013000503096319826803120308400033085007D
:1001400050309631982680317E1040018031A828A9
:100150008831ED2080312030F1000330F200503042
:10016000F30089317A2180318B170B178E319C2651
:100170008031843177248031963144268031953125
:10018000E3258031003A0319C628C728CD2801305D
:100190004001ED006D08AE0745109531D025803146
:1001A000013A031DD428D5285C29963133268031A5
:1001B000013A031DDC28DD28F5284E018C12883118
:1001C000D72080318D314025803188319A2080318F
:1001D0008B31202380318D31FD258031BF2897312F
:1001E0005E2780318131892180318A311522803129
:1001F000003A031DFC28FD28EF283D29003084002B
:1002000090308500013F8A00003F0A0081314001A3
:10021000ED002E08203E8600023087006D08810028
:100220002E08203E8600023087000D30010603199B
:100230001A291B292C292E08203E8600023087000F
:100240000A3001060319252926292C294F302E06AC
:10025000031D2B292C2939292E08203E8600023027
:100260008700810120308231552280314001AE016A
:100270003D290130ED006D08AE0706308400903056
:100280008500013F8A00003F0A008131003A031DCA
:100290004A294B29FE28BF2897315E27803141012A
:1002A000EF006F08F1000230840090308500013FBC
:1002B0008A00003F0A0081318A3115228031003ADC
:1002C000031D632964294C2978290030840090306B
:1002D0008500013F8A00003F0A008131F600683046
:1002E000840090308500013F8A00003F0A00813180
:1002F0000630840090308500013F8A00003F0A00EC
:100300008131003A031D852986296529BF2880315E
:1003100055284001DA00352A0230C300542A5A0811
:10032000C1000330C300542A3A305A02031C9929F1
:100330009A29A3295A085F39C93ED400FF3003180F
:100340000030D500AA295A08D03ED400FF30031847
:100350000030D5005408C2000430C300542A3A309B
:100360005A02031CB429B529BE295A085F39C93E6F
:10037000D600FF3003180030D700C5295A08D03EF8
:10038000D600FF3003180030D7004208D2000330F7
:10039000D235FF3E031DC82952355607C20005302D
:1003A000C300542A3A305A02031CD729D829E1291C
:1003B0005A085F39C93EAA00FF3003180030AB006D
:1003C000E8295A08D03EAA00FF3003180030AB00DD
:1003D0000130C2024208031DEE29EF29F129C301B1
:1003E000542A0630C300542A3A305A02031CF92911
:1003F000FA29032A5A085F39C93ED800FF3003188A
:100400000030D9000A2A5A08D03ED800FF3003181D
:100410000030D9002B08D3002A08D200D20ED30E08
:10042000F030D30552080F39D304F030D205580804
:100430005207AA005908533DAB002A08CE004108D4
:100440008E31D226813101304001C2024208031DA3
:100450002A2A2B2ACF29EF295B305A06031D312A7D
:10046000322A542AC301C30A542A4308D200D301B2
:100470005308003A03193D2A2C2A5208003A03195E
:100480002C2A013A03198C29033A03198F29013ABE
:1004900003199429073A0319AF29013A0319D229FC
:1004A000033A0319F4292C2A0800F9007908F1000D
:1004B0000230F2008931AB21823171080907F8005E
:1004C0005B30F6006830840090308500013F8A0080
:1004D000003F0A008231400144080F39583E86002F
:1004E000013087000108F6006830840090308500F4
:1004F000013F8A00003F0A0082310130F70077088F
:100500004001C4075330F600683084009030850005
:10051000013F8A00003F0A0082317808F70004306A
:10052000F736890B902A77080F39583E860001303C
:1005300087000108F6006830840090308500013F94
:100540008A00003F0A00823178080F39583E860041
:10055000013087000108F600683084009030850083
:10056000013F8A00003F0A008231EA2A79088600AA
:10057000023087000108F7000430F736890BBD2AE6
:1005800077080F39583E8600013087000108F600D1
:100590006830840090308500013F8A00003F0A00E7
:1005A0008231790886000230870001080F39583EF1
:1005B0008600013087000108F60068308400903022
:1005C0008500013F8A00003F0A0082310130F700B8
:1005D0007708F90779088600023087000108031DB3
:1005E000F22AF32AB62A5D30F60068308400903093
:1005F0008500013F8A00003F0A0082310800FA00AE
:100600005B30F6006830840090308500013F8A003E
:10061000003F0A008331400144080F39583E8600EC
:10062000013087000108F6006830840090308500B2
:10063000013F8A00003F0A0083310130F80078084A
:100640004001C4077A08F6006830840090308500C5
:10065000013F8A00003F0A0083317708F100F20170
:100660008931AB2182317108F8007208F900043039
:10067000F936F80C890B382B78080F39583E86006C
:10068000013087000108F600683084009030850052
:10069000013F8A00003F0A0083317708F100F20130
:1006A0008931AB21823171080F39583E8600013003
:1006B00087000108F6006830840090308500013F13
:1006C0008A00003F0A008331772B77088600870174
:1006D0000108F6006830840090308500013F8A00F0
:1006E000003F0A0083310130F8007808F7077708E7
:1006F000860087010108031D7E2B7F2B652B5D3053
:10070000F6006830840090308500013F8A00003F89
:100710000A0083310800F6016A30840090308500B9
:10072000013F8A00003F0A008331F3006A308400F1
:1007300090308500013F8A00003F0A008331F400B9
:100740006A30840090308500013F8A00003F0A0033
:100750008331F500CA2B4F307406031DB02BB12B2B
:10076000D22B4B307506031DB62BB72BD22BF601BF
:10077000F60AD22B72307406031DBF2BC02BD22B6E
:1007800072307506031DC52BC62BD22BF601D22B5A
:100790000030122C7308413A0319AB2B043A0319A9
:1007A000BA2BC82B6A30840090308500013F8A0044
:1007B000003F0A0083316A30840090308500013F99
:1007C0008A00003F0A0083316A308400903085003F
:1007D000013F8A00003F0A0083316A308400903074
:1007E0008500013F8A00003F0A0083316A3084009F
:1007F00090308500013F8A00003F0A0083316A3053
:10080000840090308500013F8A00003F0A00843157
:100810006A30840090308500013F8A00003F0A0062
:100820008431760808006A30840090308500013FEA
:100830008A00003F0A0084314001EB003C03031DA5
:10084000222C232C632C25306B06031D282C292CED
:100850003D2CBC0122088600230887008101250861
:10086000E9002408E8007830840090308500013FDA
:100870008A00003F0A008431742C3F084201E900DD
:10088000EA016908400124074201EB006A084001BF
:10089000253D4201EC006C0840012302031D542C4D
:1008A00042016B08400122020318572C582C742C6B
:1008B00022088600230887006B0881000130A20708
:1008C0000030A33D742C25306B06031D682C692C69
:1008D000702CBC01BC0A2508A3002408A200742CBB
:1008E000BD01BD0A6B08BE0040013D080800F101D2
:1008F000F10A7430840090308500013F8A00003F87
:100900000A008431F101F10A7230840090308500D0
:10091000013F8A00003F0A0084310130F4000030BA
:10092000F5007630840090308500013F8A00003F5A
:100930000A008431F1017230840090308500013F5B
:100940008A00003F0A008431F101F10A703084000E
:1009500090308500013F8A00003F0A008431C83092
:10096000F4000030F5007630840090308500013FBF
:100970008A00003F0A008431C62C6A30840090301F
:100980008500013F8A00003F0A0084316E308400F8
:1009900090308500013F8A00003F0A008431003A10
:1009A000031DD32CD42CBD2C08007A087B0403191A
:1009B000DA2CDB2C272D7B08F2007A08F100893134
:1009C000AB21843172084001CA007108C900182D9A
:1009D0007908F2007808F1007B08F4007A08F30047
:1009E00040014A08F6004908F50085317D2584312B
:1009F00071087204031DFD2CFE2CFF2C292D780894
:100A0000013EF1000030793DF2007A0884007B0855
:100A1000850000084001C700C8014708F3004808E6
:100A2000F4008A31312284317208F9007108F8002B
:100A30007808790403191D2D1E2D272D78088600AE
:100A4000790887000108031D262D272DE82CF801C1
:100A5000F9010800963138268531003A0319312D05
:100A6000322D602D3F2D9631012685317C2D96311A
:100A7000062685317C2D9631102685317C2D41014D
:100A80002F08F8000630A03E86008701413F8A000B
:100A9000403F0A008531F900FA017A08003A03194B
:100AA000522D3B2D7908013A03193B2D033A0319C6
:100AB000332D013A0319372D073A03193B2D3B2DEE
:100AC00041013C101730A03E86008701403F840062
:100AD0008501810A00089531F725853101304101F2
:100AE000B8020030B93B38083904031D782D792D40
:100AF0007B2D06307C2D033008000130F5020030DC
:100B0000F63B750A031D882D760A031D882D892D55
:100B1000982DF101F201CE2D0130F1070030F23DA8
:100B20000130F3070030F43D0130F5020030F63BB0
:100B3000710886007208870001080319A02DA12DF5
:100B4000C02D730884007408850012000319A92DB4
:100B5000AA2DC02D750876040319AF2DB02DC02D18
:100B600073088400740885000008F7007108860087
:100B700072088700010877060319BF2DC02D8C2D40
:100B80007108860072088700730884007408850065
:100B900000080102F100F201031CF20308002030FA
:100BA000F1000230840090308500013F8A00003F50
:100BB0000A0085313E30F10002308400903085001B
:100BC000013F8A00003F0A0085313E30F1000230CB
:100BD000840090308500013F8A00003F0A00853183
:100BE0003E30F1000230840090308500013F8A00E1
:100BF000003F0A0085312030F1000230840090303F
:100C00008500013F8A00003F0A0086310D30F10067
:100C10000230840090308500013F8A00003F0A00C6
:100C200086310A30F1000230840090308500013FA7
:100C30008A00003F0A00863108004001CC002A30BB
:100C4000D0000230CE000030CF0040014C088E3181
:100C500066268631003A03192E2E2F2E252EEF30D0
:100C6000F5001730F6005030F70097311A2786311B
:100C70000130F1000030F2004B309731912786317E
:100C80000030F500F6000030F700F8009731252716
:100C900086319631292686318931322186314001CB
:100CA000CD004D030319552E562E4C2E4D08031D15
:100CB0005A2E5B2E5C2E662EFF30CE07FF30CF3DC6
:100CC0004E084F04031D652E662E252E5008080081
:100CD00040019C01313098009901C1309A000830E0
:100CE0009600DE309200EF309300253094007E01B4
:100CF000CE01C930C3000E30B800E501C401B9010E
:100D0000CF01E601BA01C501D001FF30BB00FF30C1
:100D1000C600FF30D1003F30BC003F30C7003F303D
:100D2000D2003F133E133D170030F1000830F200AF
:100D30009631922686314E01161609307D01C50086
:100D400013307E01990014309A002530A4000F3032
:100D50009C0015307D01CD000A30C6000D30CB005F
:100D6000080030304001C9003030CC003030CA00BB
:100D7000471EBB2EBC2EBF2E3130CB00C12E3030D3
:100D8000CB0047080F39303EC900481EC82EC92E77
:100D9000CC2E3130CC00CE2E3030CC0048080F396C
:100DA000303ECA007C304301A0004F30A1002C30FF
:100DB000A20040014B084301A30040014908430140
:100DC000A4002C30A50040014C084301A6004001BE
:100DD0004A084301A7000D30A8000A30A9000A30D4
:100DE000F700A0308D316E25863183318B2386311B
:100DF00008008C318924863140016908F9006808AF
:100E0000F8001730FA009830FB008431D524863181
:100E10007808790403190D2F0E2F122F4001EA01D3
:100E2000C0012D2F40016908F9006808F800003062
:100E3000FA009830FB008431D52486317808790493
:100E40000319232F242F2A2F4001EA01EA0AC001A7
:100E5000C00A2D2F02304001EA006908F800680836
:100E6000F7008E31312686318531CF25863140011C
:100E70006A088A31B422863108004001D10040015D
:100E800051088E3166268731003A0319482F492FC1
:100E90003F2F0130F5000830F6005230F70097314F
:100EA0001A2787310130F1000030F2004B309731C2
:100EB000912787310030F500F6000030F700F80088
:100EC000973125278731963129268731893132217B
:100ED0008731013A03196D2F6E2F662F4001530899
:100EE000CE005208CD004E08CD00CE015208D000F1
:100EF000CF014D084F04CB004E085004CC00080031
:100F000041013708860087019531CA258731810064
:100F10000130F90079084101B7070130B80200300B
:100F2000B93B380839040319962F972F9C2F953118
:100F3000EB2587310530C22FBC15A62F96311F2611
:100F40008731C22F96311A268731C22F2C08F8001C
:100F500021088A0020080A008731F900FA017A087E
:100F6000003A0319B42FA22F7908013A0319A22FCE
:100F7000033A03199E2F013A03199E2F073A0319CA
:100F8000A22FA22F080040013208BD3E8600870133
:100F9000810142011D1DCD2FCE2FDA2F40013208D5
:100FA000BD3E860087018114420149088A00480835
:100FB0000A00873142019D1CDE2FDF2FEB2F4001FD
:100FC0003208BD3E860087010115420147088A00AC
:100FD00046080A00873140013208BD3E860087017D
:100FE00001080319F42FF52FFC2F420145088A0050
:100FF00044080A008731FF2F893192218731080088
:1010000008000230F1000030F20078089731912793
:1010100088310030F500F600F70197311A27883142
:10102000023008000230F1000030F20078089731F9
:10103000912788310030F500F600F70197311A2723
:101040008831043008000130F1000030F2007808E7
:101050009731912788310030F500F600F70197317C
:101060001A278831023008000230F1000030F20007
:1010700078089731912788310030F500F600F701A4
:1010800097311A278831023008000130F100003012
:10109000F20078089731912788310030F500F6008A
:1010A000F70197311A2788310430080002304001D7
:1010B000CB00193086311D2688310139031D612886
:1010C0006328013064280030FB007B0808000430EE
:1010D0004001CB00193086311D2688310139031DAE
:1010E00072287428013075280030FB007B08080046
:1010F00006304001CB00193086311D268831013978
:10110000031D83288528013086280030FB007B08DA
:1011100008003034313432343334343435343634F6
:101120003734383439344134423443344434453428
:10113000463400349631502688314001C700C8013A
:101140004708F60048308D31CC2588314830F7000B
:1011500050308231FF228831080047304B019F0018
:101160000B309D00DC309C001D084001A1004B01AC
:101170001C084001A0004E018C1290304B019E00D3
:101180000800CA280B30F3006230890BC528F30B26
:10119000C52800320130F1020030F23B710A031D14
:1011A000D528720A031DD528D628C2280800400178
:1011B000DF01643097318427883140016508FA00E7
:1011C0006408F9005F3097319F2788315F30F7005E
:1011D00054308231FF22883108009731102788313E
:1011E0009631DF2688318631682688319731062787
:1011F00088318831AD2088318F31432788318F3154
:1012000081278831080024304301A0002430A10048
:101210002430A2000330F700A0308D316E258931D3
:101220002D30F3009830F4000530F5008C31312476
:10123000893108007C08DD3E8600870154011908C9
:1012400081000130F0007008FC0708307C02031CAC
:101250002A292B292C29FC010130F00070084001BB
:10126000B7070800F101F10A4101BC1838293929F2
:1012700048293C11FF30B6009531B52589319531AB
:10128000BB2589319531B825893141013B08F100F1
:1012900071080800780886008701403FF100413F4F
:1012A000F2007808023E86008701010897319127F5
:1012B00089310030F500F600F70197311A2789319E
:1012C00002300800780886008701403FF100413F66
:1012D000F2007808023E86008701010897319127C5
:1012E00089310030F500F600F70197311A2789316E
:1012F000023008007108720403197F29802990299F
:1013000002307302031C8529862990297208400146
:10131000A5007108A4007308FF3EBF0001309129A9
:101320000030080040013208C53E860087014201B6
:10133000190881000130F00070084001B207083040
:101340003202031CA429A529A629B2010130F0000C
:101350007008B00708007208F5007108F400B4299D
:101360000130F1070030F23D7108840072088500F9
:101370001200031DBC29BD29B02974087102F100B7
:101380007508723BF2000800F6007608F500750853
:1013900086008701F50A7208F4007108F300F10A6B
:1013A0000319F20A73088400740885000008C03F1E
:1013B0008908031DDC29DD29C72908002D304301D8
:1013C000A0002D30A1002D30A2000D30A3000A3066
:1013D000A4000530F700A0308D316E25893128300A
:1013E000F3009830F4000530F5008C313124893158
:1013F00008008931032189311430F4000030F500F0
:101400007630840090308500013F8A00003F0A005A
:101410008A3140012D08C8002C08C7008631B1264A
:1014200089318931DE218931080040013D080319E5
:101430001A2A1B2A1D2A0130302A6E30840090306F
:101440008500013F8A00003F0A008A31003A0319F3
:101450002A2A2B2A2F2A843113248A31302A003059
:101460000800710886007208870001087306031DD2
:101470003A2A3B2A3C2A4E2A7208F6007108F500E7
:10148000F10A0319F20A7508860076088700010838
:10149000031D4B2A4C2A312AF101F20108004001B8
:1014A000C900CA01CA0A4101BC18572A582A6D2A24
:1014B000BC144001CA01490803195F2A602A642A42
:1014C0004101BA01BA0A672A02304101BA009531D6
:1014D000BE258A3197316A278A3140014A080800BF
:1014E0000830400139020318762A772A8F2A3A08F1
:1014F000E53E86008701010854019A000130F000A2
:1015000070084001BA0708303A02031C882A892A69
:101510008A2ABA010130F0007008B907912A4E01F9
:10152000191308000830400133020318982A992A39
:10153000B12A3408CD3E86008701010842019A0095
:101540000130F00070084001B40708303402031C79
:10155000AA2AAB2AAC2AB4010130F0007008B30704
:10156000B32A4E0119120800F3007308031DB92AAB
:10157000BA2AC62A5B30F100023084009030850020
:10158000013F8A00003F0A008A31D62A7303031DF7
:10159000CA2ACB2AD62A5D30F1000230840090306E
:1015A0008500013F8A00003F0A008A310800F400EC
:1015B000710872040319DD2ADE2AED2A7435A03E73
:1015C000860087017108C03F7208C13F7408AC3EB5
:1015D0008600870173088100FA2A7435A03E8600D0
:1015E0008701B130C03F1530C13F7408AC3E860062
:1015F00087018101080005304001CB001830873198
:101600003D278A3140014C08DE004B08DD005E08B2
:101610001F39DB005D08DC005C08D600D7015B08E1
:10162000D800D9015808D900D80156085804DD005F
:1016300057085904DE005E08D5005D08D400080094
:1016400096314A268B314001CA00C7014A08F6008C
:1016500047308D31CC258B314730F7004C3082310B
:10166000FF228B3196312E268B31103E4001CA006D
:10167000C7014A08F60047308D31CC258B31473001
:10168000F7004C308231FF228B31080040013708CF
:1016900003194B2B4C2B462B3808D53E860087016F
:1016A0000108B6003808DD3E860087010108F20017
:1016B0000130F1007108B80708303802031C612BB3
:1016C000622B632BB8014E01991301304001B70220
:1016D0004E01991772080800400130080319712B58
:1016E000722B6C2B3108BD3E860087010108AF00CC
:1016F0003108C53E860087010108F2000130F10083
:101700007108B10708303102031C872B882B892B05
:10171000B1014E01991201304001B0024E019916FB
:1017200072080800400139080319972B982B922B57
:101730004E01191B9C2B9D2BA12B710854019A0063
:10174000B62B191340013B08E53E8600870171085E
:1017500081000130F2007208BB0708303B02031C15
:10176000B22BB32BB42BBB010130B9024E011917B8
:101770000800400133080319BE2BBF2BB92B4E01C3
:10178000191AC32BC42BC82B710842019A00DD2BF8
:10179000191240013508CD3E86008701710881008D
:1017A0000130F2007208B50708303502031CD92B4E
:1017B000DA2BDB2BB5010130B3024E0119160800FC
:1017C00041013C100230BB00ED2B96310B268B31D2
:1017D000072C963110268B31072C2E08F800043088
:1017E000A03E86008701413F8A00403F0A008B31BE
:1017F000F900FA017A08003A0319FF2BE92B79085E
:10180000023A0319E52B013A0319E52BE92B0800ED
:101810009531B5258C3141013C1C0F2C102C1B2C13
:10182000963138268C31003A0319172C182C1B2CB2
:101830000F304101BA0041013A084001C700C80118
:10184000C735C80D2830470784001030483D803820
:101850008500013F8A00003F0A008C314101BA0037
:101860000800F901542C6A30840090308500013F53
:101870008A00003F0A008C31F8007408F7007308F2
:10188000F60079087607840077080318770A850040
:101890000008780603194D2C4E2C502C00305B2C80
:1018A0000130F6007608F90775087902031C592CF7
:1018B0005A2C332C013008004101BC156C2C963198
:1018C0000B268C31882C9531CD258C310330882C1A
:1018D000963110268C31882C2C08F80021088A00BB
:1018E00020080A008C31F900FA017A08003A03193D
:1018F0007A2C682C7908013A0319682C033A0319E9
:101900005F2C013A03195F2C073A0319632C682CEA
:1019100008003C30F1000230840090308500013F27
:101920008A00003F0A008C313C30F1000230840014
:1019300090308500013F8A00003F0A008C313C3026
:10194000F1000230840090308500013F8A00003FA2
:101950000A008C312030F100023084009030850084
:10196000013F8A00003F0A008C3108004001D4008A
:10197000883156208C31003A0319BF2CC02CB82C6A
:1019800002304001CB00193086311D268C314001D8
:10199000D5000330CB00193086311D268C31400133
:1019A000D6005608D2005508D1000430D300520D9D
:1019B000D20CD10CD30BD72C5408860087015108C8
:1019C000C03F5208C13F08004001D4008831672061
:1019D0008C31003A0319ED2CEE2CE62C043040013A
:1019E000CB00193086311D268C314001D5000530E1
:1019F000CB00193086311D268C314001D6005608A7
:101A0000D2005508D1000430D300520DD20CD10CB5
:101A1000D30B052D5408860087015108C03F52089A
:101A2000C13F08004001D400883178208D31003A50
:101A300003191B2D1C2D142D06304001CB0019302D
:101A400086311D268D314001D5000730CB0019307D
:101A500086311D268D314001D6005608D20055082A
:101A6000D1000430D300520DD20CD10CD30B332D46
:101A70005408860087015108C03F5208C13F080042
:101A80004001DA0167308F31BF278D31FF304001CF
:101A90006705F9000F306805FA005A3097319F2723
:101AA0008D31FF3040016905F9000F306A05FA00F9
:101AB0005A3097319F278D31FF3040016B05F90077
:101AC0000F306C05FA005A3097319F278D315A300C
:101AD000F70058308231FF228D310800FA00F901F9
:101AE000952D6C30840090308500013F8A00003FC6
:101AF0000A008D31003A03197E2D7F2D952D79082E
:101B00007A07F80078088600013087000108F6009F
:101B10006830840090308500013F8A00003F0A0051
:101B20008D310130F8007808F90777087902031C35
:101B30009A2D9B2D712D0800FB007B088E316626A7
:101B40008D31003A0319A52DA62D9D2DDE30F5000F
:101B50001730F6004C30F70097311A278D310130DD
:101B6000F1000030F2004B30973191278D31003079
:101B7000F500F6000030F700F800973125278D3189
:101B8000963129268D31893132218D31013A03195F
:101B9000CA2DCB2DC32D0800F8007808F100F20102
:101BA0008931AB218D317108F7007708F807780883
:101BB00086008701760E0F398919F0380F39583EA3
:101BC000840001308500000881000130F7007708AB
:101BD000F80778088600870176080F39583E840098
:101BE00001308500000881000130F7007708F80710
:101BF000780886008701810108004001C901DD01E4
:101C0000152E5D08223E840098300318013E8500A1
:101C10000008DC005C08F60049308D31CC258D31A0
:101C200001304001C7004708DD072230F10098303D
:101C3000F2008931AB218D3140015D08C700C80138
:101C400072084802031D262E71084702031C292E24
:101C50002A2E012E4930F70056308231FF228D3175
:101C600008007808F2007708F10047308931C42174
:101C70008E314001E701502E6708473E86008701FC
:101C80000108F1000230840090308500013F8A0095
:101C9000003F0A008E310130F90079084001E70762
:101CA0007808F2007708F1008931AB218E314001CC
:101CB0006708F900FA0172087A02031D612E7108A3
:101CC0007902031C642E652E3C2E0800F100F201FF
:101CD000F20A41013C196D2E6E2E9A2E7108B60043
:101CE000BC103C153C100E30BA00F430B40001308A
:101CF000B500BC15B130A0001530A100AC01B13069
:101D0000A2001530A300AD01B130A4001530A5002C
:101D1000AE01B130A6001530A700AF01B330A80066
:101D20001530A900B0019531B5258E31973177274F
:101D30008E31F2017208080011304001CB00CC0155
:101D400019308D319C258E3110304001CB00083088
:101D5000CC0019308D319C258E310F304001CB00E5
:101D60000330CC0019308D319C258E311630400166
:101D7000CB008030CC0019308D319C258E3119304C
:101D80004001CB008030CC0019308D319C258E3144
:101D900016304001CB00193086311D268E314001AE
:101DA000C60008004001D000012F4E08CF000430CB
:101DB000CF36890BD82E4F080139D1005108031DA9
:101DC000E22EE32EEB2E4E18E62EE72EE92E981685
:101DD000092F9812092F4E18EE2EF02E0130F12EF9
:101DE00000309731AD278E31092F4E08F1000230B7
:101DF000840090308500013F8A00003F0A008E3148
:101E0000092F50084C3A0319D52E1F3A0319F52E05
:101E1000092F08007C08D53E860087018101540106
:101E20001D1D132F142F1F2F7C08D53E8600870100
:101E30008114420153088A0052080A008F3154016C
:101E40009D1C232F242F2F2F7C08D53E8600870131
:101E50000115420151088A0050080A008F317C08A0
:101E6000D53E8600870101080319372F382F3F2FF1
:101E700042014F088A004E080A008F31422F8931F3
:101E80001A218F3108004E019912C330F10007303A
:101E9000F200963168268F314E0119129230F1000E
:101EA0000A30F20096316E268F31083042019F00D1
:101EB00090309D0024309E0040309B0003309C00F9
:101EC000AF30F1001530F20096315C268F31D730FB
:101ED000F1001530F200963162268F31D330F100D7
:101EE0001530F200963156268F314001AF01B50111
:101EF000B4010830B300B201B101B0014E0199162E
:101F000008004E0199130A30F1000F30F2009631AB
:101F100086268F314E0119137030F1000A30F2001D
:101F200096318C268F31083054019F0090309D00EF
:101F300024309E0040309B0003309C00B030F10004
:101F40001530F20096317A268F31DF30F1001530EE
:101F5000F200963180268F31DB30F1001530F2002F
:101F6000963174268F314001B601BB01BA010830A9
:101F7000B900FC01B801B7014E01991708004001F2
:101F8000D700883156208F31003A0319C82FC92F46
:101F9000C12F58308C31B6248F314001570886004C
:101FA00087015808C03F5908C13F883167208F31E9
:101FB000003A0319DC2FDD2FD52F58308C31E42463
:101FC0008F3140015708023E860087015808C03F04
:101FD0005908C13F883178208F31003A0319F12F19
:101FE000F22FEA2F58308D3112258F3140015708DA
:101FF000043E860087015808C03F5908C13F0800C9
:102000006C340B34B9340B3400340034D634163409
:102010006E341634C334073468341634F33415344C
:1020200092340A3443340F3446340B3492340B3434
:1020300000340034CD3416348C3416340A340F3462
:1020400086341634EF34153470340A3481340F3446
:10205000FC341534C4341634AB3416342A34053405
:1020600080340734A43416345C340C340134163410
:10207000063416340B341634103416341534163432
:102080001A3416341F34163424341634E0340B3426
:1020900000340034003400340034003400340034A0
:1020A0000034003400340034003400340034003490
:1020B0000034003400340034003400340034003480
:1020C0000034003400340034003400340034003470
:1020D00046341734E8341634F2341634FC341634EB
:1020E000303417343B34173452341734B334163485
:0420F000F934063485
:102B5E000800080001300800053008004E010F1073
:102B6E0008004301901208004E011910080043019D
:102B7E0011140800430191140800430111150800B7
:102B8E0043019115080043010C0808004E010F1473
:102B9E000800400140080800893192219531080053
:102BAE0042011D121D16080089311A2195310800A7
:102BBE0054011D121D160800400145080139080078
:102BCE0043019116111608004301911211160800C7
:102BDE0054011E0C0139080042011E0C0139080077
:102BEE00F100710843018C0008004101BC10BB01CB
:102BFE000E3008009531C12596310130080095310F
:102C0E00C1259631023008009531C125963101302B
:102C1E0008009531C4259631003008009531EB251A
:102C2E009631053008009531E72596310A300800B7
:102C3E009531E7259631093008004101BC10BB01E2
:102C4E000E30080000308A314F22963108004001C4
:102C5E002D080139013C08004E010C0E890C01397A
:102C6E0008004301110E890C890C013908004E0130
:102C7E000F1C422E432E3E2E080001304001AC00A8
:102C8E000130AD00080040010C0E890C0139013CE9
:102C9E00080040010C0D0C0D0139013C08007208B2
:102CAE004201C5007108C400080072084201C90043
:102CBE007108C800080072084201C7007108C600FA
:102CCE00080072084201CB007108CA0008007208A1
:102CDE004201CD007108CC00080072084201CF00FD
:102CEE007108CE00080072084201D3007108D200AC
:102CFE00080072084201D1007108D0000800720865
:102D0E004201D5007108D400080072084201D700B4
:102D1E007108D600080072084101EE007108ED003E
:102D2E000800640080010131890B992E0034FE00E9
:102D3E0012001E00FE0B9F2E003441013C109531F7
:102D4E00C72596310430080041013C1436359531C3
:102D5E00F7259631033008007508F2007408F1006B
:102D6E008831C120963108007E013F1FBF2EC02E34
:102D7E00C32E9731BC279631080041013C14031431
:102D8E00360D9531F725963105300800400137088C
:102D9E00031DD22ED42E0130D52E00300800400156
:102DAE003008031DDB2EDD2E0130DE2E0030080034
:102DBE0043018F010830900091014F308D00901229
:102DCE0008001430840090308500013F8A00003FD7
:102DDE000A00963108002230840090308500013FB1
:102DEE008A00003F0A00963108001A3084009030A5
:102DFE008500013F8A00003F0A00973108006030CD
:102E0E0051018D008F0191010630930090019201C6
:102E1E0008004F0196019701980199019A019B01B3
:102E2E009C019D0108007608F2007508F1007708F4
:102E3E00F30000308A31D722973108007608F2006D
:102E4E007508F1007708F30002308A31D7229731E6
:102E5E0008007103031D342F352F382F40011A132C
:102E6E003A2F40011A1708007103031D3F2F402F00
:102E7E00432F40011810452F400118140800760802
:102E8E00F1001630840090308500013F8A00003F2B
:102E9E000A0097310800400192137103031D582F49
:102EAE00592F5B2F98175C2F9813921708008A31B1
:102EBE0015229731003A0319652F662F5E2F4001B8
:102ECE00BD013E080800712F96313E2697318C3198
:102EDE00082497314101BC18752F762F6B2F0800EF
:102EEE004301901A7B2F7C2F832F8F010830900087
:102EFE0091014F308D0090160800FB008A31FB22A5
:102F0E0097317B088600870140015408C03F550861
:102F1E00C13F0800F3004101BC1D962F972F9E2F35
:102F2E007308B7007208B9007108B800BC11080028
:102F3E00FB007908F6007B088D31CC2597317A0895
:102F4E00F6007B088D31CC25973108004001CD006D
:102F5E000130FB004D08FB022D087B06FE397B0677
:102F6E00AD008931F9219731080040014514410126
:102F7E006D086E040319C42FC52FCA2F6E088A0060
:102F8E006D080A0097317E013F1308000230F100F0
:102F9E000030F20078089731912797310030F50014
:102FAE00F600F70197311A279731043008000130E7
:102FBE00F1000030F20078089731912797310030F8
:102FCE00F500F600F70197311A2797310430080003
:102FDE000130F1000030F2007808973191279731D7
:102FEE000030F500F600F70197311A2797310230BD
:102FFE000800533454345234453441344D345F3424
:10300E004F34503445344E340034523465346234C7
:10301E006F346F34743469346E3467340D340A345B
:10302E0044344934533443344F344E344E3445349F
:10303E0043345434003431342E3431342E3430345D
:10304E00003445344E3444340D340A3443344D3454
:0E305E0044343E3420342234983422349834E2
:020000040001F9
:08000000FF3FFF3FFF3FFF3F00
:0A000E00EC3FFF3F9F3FFF3FFF3F25
:00000001FF
